:060000000A128A110E280D
:10000800FE00030E83120313BD000A08BE000A1285
:100018008A111E280A128A1111288313403084007D
:1000280051300A128A1138250A128A1183010A12DC
:100038008A11322A0C1F21282228A4291F0CBA0051
:100048003A0C0F39003A031D2A282B289828420811
:100058004304031D30283128592840034104031D57
:100068003628372859281E08BA00BB013A08AE00BE
:100078003B08AF000030B000B100FF30B2000030E4
:10008800B3007C30B4000030B5007430B6000230E4
:10009800B7000A128A1110240A128A118312031354
:1000A8002F08CB002E08CA00712842034304031D01
:1000B8005E285F28712840034104031D64286528D1
:1000C800712804300A128A1117250A128A11710838
:1000D80083120313CB007008CA004B08BB004A0800
:1000E800BA003B0DBB0CBA0C3B0DBB0CBA0C3A0862
:1000F80095004A080139BA00BA0E17083A06EF39CE
:100108003A0697004B08BB004A08BA003B0DBB0CE7
:10011800BA0C3A080139BC00BC0EBC0D17083C06E5
:10012800DF393C069700A4291F0CBA003A0C0F3996
:10013800013A031DA028A1280E2942084304031DE3
:10014800A628A728CF2840034104031DAC28AD28C2
:10015800CF281E08BA00BB013A08AE003B08AF0022
:100168000030B000B100FF30B2000030B3007C3086
:10017800B4000030B5007430B6000230B7000A127F
:100188008A1110240A128A11831203132F08C90036
:100198002E08C800E72842034304031DD428D528A5
:1001A800E72840034104031DDA28DB28E728053047
:1001B8000A128A1117250A128A1171088312031369
:1001C800C9007008C8004908BB004808BA003B0DC0
:1001D800BB0CBA0C3B0DBB0CBA0C3A089B00480888
:1001E8000139BA00BA0E1D083A06EF393A069D00E1
:1001F8004908BB004808BA003B0DBB0CBA0C3A08CA
:100208000139BC00BC0EBC0D1D083C06DF393C069C
:100218009D00A4291F0CBA003A0C0F39023A031D9D
:1002280016291729592942084304031D1C291D2989
:10023800432940034104031D2229232943291E0879
:10024800BA00BB013A08AE003B08AF000030B0006E
:10025800B100FF30B2000030B3000130B40000300C
:10026800B5000530B6000030B7000A128A11102414
:100278000A128A11831203132E08D000A4294203FC
:100288004304031D48294929A42940034104031DA7
:100298004E294F29A42906300A128A112B250A1241
:1002A8008A1183120313D000A4291F0CBA003A0C38
:1002B8000F39033A031D61296229A429420843041E
:1002C800031D672968298E2940034104031D6D29F0
:1002D8006E298E291E08BA00BB013A08AE003B08F9
:1002E800AF000030B000B100FF30B2000030B30002
:1002F8000130B4000030B5000530B6000030B7005A
:100308000A128A1110240A128A11831203132E0862
:10031800CE00A42942034304031D93299429A42948
:1003280040034104031D99299A29A42907300A1278
:100338008A112B250A128A1183120313CE00A429CD
:100348008C1CA729A829A9298C100B1DAC29AD291B
:10035800C32950084F020318B229B329B529071435
:10036800B62907100130BA003A08CF070A304F0201
:10037800031CBF29C029C129CF01833081000C1C6F
:10038800C629C729DF294E084D020318CC29CD29D3
:10039800CF298715D02987110130BA003A08CD072F
:1003A8000A304D02031CD929DA29DB29CD01FF3097
:1003B8008F008F308E008C1EE229E329252A1A0827
:1003C800CC0030304C06031DEA29EB29FA29773096
:1003D800CA000130CB007730C8000130C9000330B3
:1003E800D0000330CE00C001C101252A31304C06AF
:1003F800031DFF29002A052A0130C0000030C10072
:10040800252A32304C06031D0A2A0B2A152A0130E8
:10041800F0000030F1000A128A11A2240A128A118F
:10042800252A33304C06031D1A2A1B2A252A023096
:10043800F0000030F1000A128A11A2240A128A116F
:10044800252A0B11831203138C120C100C133E086F
:100458008A003D0E8300FE0E7E0E09000A128A11E4
:10046800A4230A128A11831203139F183C2A3D2AD7
:10047800962A1F0C83160313A200220C0F39003A88
:10048800031D472A482A4F2A831203131F08C3391A
:1004980004389F00892A831203131F0C8316031341
:1004A800A200220C0F39013A031D5B2A5C2A632A39
:1004B800831203131F08C33908389F00892A83123F
:1004C80003131F0C83160313A200220C0F39023AE0
:1004D800031D6F2A702A772A831203131F08C33952
:1004E8000C389F00892A831203131F0C83160313E9
:1004F800A200220C0F39033A031D832A842A892A71
:10050800C330831203139F05892A8230831603138D
:10051800A300DD30A200A20B8F2AA30B8F2A83121F
:1005280003139F140618992A9A2A9E2A0130C60096
:100538000030C700061CA12AA22AE22A4603470463
:10054800031DA72AA82AE22A4B0883160313A10031
:10055800831203134A0883160313A00004300A12F7
:100568008A11CD240A128A118312031349088316AB
:100578000313A10083120313480883160313A00072
:1005880005300A128A11CD240A128A118312031324
:100598005008BF0006300A128A11F5240A128A117F
:1005A800831203134E08BF0007300A128A11F5247C
:1005B8000A128A1183120313C601C7018618E52A95
:1005C800E62AEA2A0130C4000030C500861CED2A5C
:1005D800EE2A372A44034504031DF32AF42A372A4E
:1005E80042084304031DF92AFA2AFF2A0130C200EF
:1005F8000030C300012BC201C301C401C501372A61
:100608000A128A110E2883120313A901A31F0D2BA6
:100618000E2B1B2BA009A109A209A309A00A0319E3
:10062800A10A0319A20A0319A30AA901A90AA71F63
:100638001E2B1F2B2E2BA409A509A609A709A40A5E
:100648000319A50A0319A60A0319A70A0130FD0010
:100658007D08A9060030AD000030AC000030AB00CA
:100668000030AA00230822042104200403193D2B8A
:100678003E2B8B2BA801A80A4E2B0130FD0003103E
:10068800A00DA10DA20DA30DFD0B432B0130FD0004
:100698007D08A807A31F512B522B412B0130FD00C9
:1006A8000310AA0DAB0DAC0DAD0DFD0B542B23089B
:1006B8002702031D692B22082602031D692B210826
:1006C8002502031D692B20082402031C6C2B6D2BAB
:1006D8007C2B2008A4022108031C210FA502220854
:1006E800031C220FA6022308031C230FA7022A14A7
:1006F80001300310A30CA20CA10CA00CFF3E031D9B
:100708007D2B0130A802031D8A2B8B2B522B290825
:1007180003198F2B902B9B2BAA09AB09AC09AD09A8
:10072800AA0A0319AB0A0319AC0A0319AD0A2D0862
:10073800A3002C08A2002B08A1002A08A00008008A
:100748006030831603138F00E0308B0067308C0015
:1007580004309800083083160317870090308312FE
:100768000313980067308316031399009A014130E8
:10077800831203139F00831603139F010F30831600
:10078800031788008901033083160313860003309A
:100798009500013081008F308312031381002130CE
:1007A8009000FF308F008F308E00831603130715DB
:1007B800FA3092000C3083120313970095010C3025
:1007C8009D009B01073092008C1CEB2BEC2BE82B37
:1007D8008C018D010F3083160313850007108710D5
:1007E8000711871188018312031385018601870188
:1007F80088017730CA000130CB007730C80001305B
:10080800C9000330D000CF010330CE00CD01C201B2
:10081800C301C001C101080083120313300832026A
:10082800A0003108031C310A3302A100A201A11B58
:10083800A2032208A30030082E02F0003108031C8E
:10084800310A2F02F100F201F11BF2037208F300E2
:1008580034083602F4003508031C350A3702F5005F
:10086800F601F51BF6037608F7000A128A115C24D4
:100878000A128A11730883120313A7007208A600CC
:100888007108A5007008A4000A128A1107230A1229
:100898008A118312031334082007B8003508031897
:1008A800350A2107B9003908AF003808AE0008003A
:1008B8000030FC000030FB000030FA000030F90086
:1008C800701C672C682C7F2C7408F90775080311B5
:1008D8000318013E0319712CFA077608031103184F
:1008E800013E0319782CFB07770803110318013E12
:1008F80003197F2CFC070130F8000310F40DF50DE7
:10090800F60DF70DF80B812C01300310F30CF20CE7
:10091800F10CF00CFF3E031D892C7308720471045E
:100928007004031D982C992C642C7C08F3007B0818
:10093800F2007A08F1007908F000080070037104E9
:10094800031DA72CA82CB72CF53083120313CA005B
:100958000130CB00F530C8000130C900D001D00A01
:10096800CE01CE0ACC2C023070067104031DBD2CBA
:10097800BE2CCC2CB63083120313CA000130CB0036
:10098800B630C8000130C9000330D0000330CE00B3
:10099800080083120313BF00831603178C18D52C85
:1009A800D62CF42C831203133F08831203178D00EF
:1009B800831603132008831203178C00831603136E
:1009C8002108831203178E00831603178C130C1546
:1009D8008B1355308D00AA308D008C148B170C1199
:1009E800080083160313A000831603178C18FD2C28
:1009F800FE2C162D831603132008831203178D006F
:100A0800831203133F08831203178C0083160317FE
:100A18008C130C158B1355308D00AA308D008C1457
:100A28008B170C110800F4007408831203178D004B
:100A3800831603178C130C14831203170E08F30084
:100A48000C08F2007308F1007208F0000800F000CA
:100A58007008831203178D00831603178C130C1468
:100A6800831203170C08080064008001840A040636
:080A7800031900340406392DB6
:08400000FF3FFF3FFF3FFF3FC0
:04400E00D420FF3F7C
:00000001FF
